:020000040800F2
:10000000180C00205D020008810400082D0400087F
:100010007D0400080D030008970700080000000099
:10002000000000000000000000000000ED010008DA
:10003000110300080000000011020008B5050008C7
:1000400077020008770200087702000877020008AC
:10005000770200087702000877020008770200089C
:10006000770200087702000877020008770200088C
:10007000770200087702000877020008770200087C
:10008000770200087702000877020008770200086C
:10009000770200087702000877020008770200085C
:1000A000770200087702000877020008770200084C
:1000B000770200087702000877020008770200083C
:1000C000770200087702000877020008770200082C
:1000D00077020008B10600087702000877020008DE
:1000E000770200087702000877020008770200080C
:1000F00077020008770200087702000877020008FC
:1001000077020008770200087702000877020008EB
:1001100077020008770200087702000877020008DB
:1001200077020008770200087702000877020008CB
:1001300000F002F800F03AF80AA090E8000C8244BF
:100140008344AAF10107DA4501D100F02FF8AFF29C
:10015000090EBAE80F0013F0010F18BFFB1A43F0A5
:1001600001031847BC080000DC080000103A24BF57
:1001700078C878C1FAD8520724BF30C830C144BF0C
:1001800004680C607047000000230024002500264E
:10019000103A28BF78C1FBD8520728BF30C148BFEA
:1001A0000B6070471FB51FBD10B510BD00F07BF888
:1001B0001146FFF7F7FF00F03BFB00F099F803B49E
:1001C000FFF7F2FF03BC00F0E8FA00000648006801
:1001D000006880F3088862B661B6BFF34F8FBFF343
:1001E0006F8F00DF00BF00BF08ED00E01A4B1968F9
:1001F0000868B0E8F00F80F30988BFF36F8F4FF005
:10020000000080F311884EF00D0E704700000000D2
:10021000EFF30980BFF36F8F0F4B1A6820E9F00FDF
:10022000106008B54FF0500080F31188BFF34F8F76
:10023000BFF36F8F00F0ACFB4FF0000080F311882C
:10024000BDE8084019680868B0E8F00F80F3098835
:10025000BFF36F8F704700BF300000200948804710
:1002600009480047FEE7FEE7FEE7FEE7FEE7FEE798
:10027000FEE7FEE7FEE7FEE704480549054A064BB0
:1002800070470000B9050008310100081806002079
:10029000180C00201808002018080020704770472C
:1002A000704770477047754600F02CF8AE46050061
:1002B0006946534620F00700854618B020B5FFF781
:1002C000DBFFBDE820404FF000064FF000074FF085
:1002D00000084FF0000B21F00701AC46ACE8C00964
:1002E000ACE8C009ACE8C009ACE8C0098D4670476D
:1002F00010B50446AFF300802046BDE81040FFF77C
:100300005EBF000000487047B805002000BFFEE750
:1003100070472DE9F0410246002500260020002309
:100320000024002791F803C00CF00F0591F803C0DA
:100330000CF0100CBCF1000F03D091F802C04CEA95
:10034000050591F800C0BCF1000F31D01468002001
:100350002BE04FF0010C0CFA00F3B1F800C00CEAEE
:1003600003069E4220D183004FF00F0C0CFA03F7D6
:10037000BC4305FA03FC4CEA040491F803C0BCF149
:10038000280F06D14FF0010C0CFA00FCC2F814C083
:100390000AE091F803C0BCF1480F05D14FF0010C01
:1003A0000CFA00FCC2F810C0401C0828D1D314601D
:1003B000B1F800C0BCF1FF0F34DD546800202EE01E
:1003C00000F1080C4FF0010808FA0CF3B1F800C076
:1003D0000CEA03069E4221D183004FF00F0C0CFA69
:1003E00003F7BC4305FA03FC4CEA040491F803C08C
:1003F000BCF1280F05D100F1080C08FA0CF8C2F87E
:10040000148091F803C0BCF1480F07D100F1080C2B
:100410004FF0010808FA0CF8C2F81080401C0828B8
:10042000CED35460BDE8F0810161704700BFFEE7A4
:1004300008B50121482000F025F82020ADF8000083
:1004400010208DF8030003208DF80200694609484A
:10045000FFF75FFF20210748FFF7E6FF2020ADF8F8
:10046000000069460448FFF754FF20210248FFF7C7
:10047000DBFF08BD000C01400018014000BFFEE793
:100480007047000029B1064A92690243044B9A6101
:1004900004E0034A92698243014B9A61704700006D
:1004A0000010024010B500F001F810BD0CB500209E
:1004B000019000903348006840F480303149086072
:1004C00000BF3048006800F4003000900198401CE4
:1004D0000190009818B90198B0F5A06FF1D12948A2
:1004E000006800F4003010B10120009001E000200D
:1004F00000900098012843D12348006840F0100084
:10050000214908600846006820F00300086008469A
:10051000006840F0020008601A48406819494860C5
:100520000846406848600846406840F4806048607B
:100530000846406820F47C1048600846406840F453
:10054000E81048600846006840F08070086000BF0E
:100550000C48006800F000700028F9D00948406895
:1005600020F00300074948600846406840F0020058
:10057000486000BF0348406800F00C000828F9D12B
:100580000CBD00000010024000200240042808D1E9
:100590004FF0E021096941F004014FF0E0221161C0
:1005A00007E04FF0E021096921F004014FF0E0225B
:1005B000116170477047000010B51348006840F0A3
:1005C00001001149086008464068104908400E497A
:1005D0004860084600680E4908400B490860084614
:1005E000006820F4802008600846406820F4FE007F
:1005F00048604FF41F008860FFF754FF4FF0006021
:100600000449086010BD0000001002400000FFF81F
:10061000FFFFF6FE08ED00E000BF01200D49086075
:100620000D4908604FF4FA7000F0DCF80020094929
:1006300008600A49C1F894014FF4FA7000F0D2F84A
:100640004FF0805006490860BFF34F8FBFF36F8FA4
:10065000E3E7000000000020948121420080214255
:1006600004ED00E000BF01200D4908600D4908605D
:100670004FF4FA7000F0B6F80020094908600A4902
:10068000C1F894014FF4FA7000F0ACF84FF08050CC
:1006900006490860BFF34F8FBFF36F8FE3E7000099
:1006A00004000020940123420000234204ED00E0F6
:1006B00010B540F225511D4800F03EF810B31B481C
:1006C00000F064F8C4B21A48008800F40040C8B9C9
:1006D0001748008800F4804060B10A2C03D0002045
:1006E0001349088020E01248008840F40040104977
:1006F000088019E00D2C06D10D48008840F4804098
:100700000B49088010E00A480088C0F30D00094931
:100710000C5407480088401C05490880084600889A
:10072000C72801DD0020088010BD0000003801400E
:100730002C0000208C04002070B502460024002309
:100740000025002040F66A16B14200D100BFC1F377
:10075000421501F01F03012606FA03F3012D02D111
:100760009689334006E0022D02D1168A334001E01B
:10077000968A33400C12012606FA04F41688344097
:1007800013B10CB1012000E0002070BD0146888843
:10079000C0F30800704700BFFEE700BF70470000CD
:1007A00010B56FF00400FFF7F1FE0A4800680A492F
:1007B000B0FBF1F0094908700846007800EB4001F1
:1007C000C1EBC0104FF6FF7101EAC0000449088078
:1007D00010BD00001000002000127A00240000204C
:1007E000260000200146114A12884A434FF0E023B8
:1007F0005A6100229A611A46126942F001021A6196
:1008000000BF4FF0E022106900F001021AB100F4BD
:100810008032002AF5D04FF0E022126922F0010266
:100820004FF0E0231A6100229A61704726000020F1
:100830000EB5FFF7B5FFFFF7FBFD00201649086076
:100840001648174903220023CDE900210290802297
:1008500014A1164800F0C2F8154908600F49091D97
:10086000144800F07CF81448144903220023CDE911
:1008700000210290802212A1134800F0AFF8134922
:1008800008600D49091D0B48143000F068F800F0AD
:1008900073F800BFFEE7000094812142340200207B
:1008A000340000205461736B310000001906000809
:1008B000080000206805002060040020600200207D
:1008C0005461736B32000000650600080C000020C4
:1008D0002DE9F05F07460E4690469946DDE90BA4E8
:1008E000A8F10100A16901EB800B2BF0070B00259B
:1008F00007E0715D04F11C004155705D00B902E034
:100900006D1C102DF5D300BF00212B200155201D9B
:1009100000F022F824614A463946584600F00AF8A9
:100920002060BAF1000F01D0CAF80040BDE8F09F86
:1009300000BFFEE7001F4FF080730360001F21F02F
:1009400001030360001F034B03601438026020386A
:1009500070470000310900080021016170474268BA
:100960004A6093688B60936859609160086103687E
:100970005B1C03607047000010B503480349086022
:1009800000F01AF810BD00003402002030000020F2
:10099000064800680649884203D1064803490860B2
:1009A00002E0034801490860704700003000002061
:1009B000340200206004002010B50748006840F4AD
:1009C0007000054908600846006840F07040086003
:1009D000FFF7FCFB002010BD20ED00E02DE9F04FFB
:1009E00085B00746884691469A46DDE90EB6109CCA
:1009F0007CB176B12546AE61002004A953464A4633
:100A0000CDE900B1CDE9025041463846FFF760FF1D
:100A100001E000200490049805B0BDE8F08F0000CC
:100A2000400A000800000020340000006C010008AB
:100A3000740A000834000020E40B0000880100085C
:100A400000000000000000000000000000000000A6
:100A500000A24A040000000000000000010203049C
:100A60000607080900000000000000000000000068
:040A70000000000082
:040000050800025D90
:00000001FF
